{
	"simple-nft.sol": {
		"NFTCount": {
			"abi": [
				{
					"inputs": [],
					"name": "addNFT",
					"outputs": [],
					"stateMutability": "nonpayable",
					"type": "function"
				},
				{
					"inputs": [],
					"name": "checkNumOfNFT",
					"outputs": [
						{
							"internalType": "int8",
							"name": "",
							"type": "int8"
						}
					],
					"stateMutability": "view",
					"type": "function"
				},
				{
					"inputs": [],
					"name": "deleteNFT",
					"outputs": [],
					"stateMutability": "nonpayable",
					"type": "function"
				}
			],
			"devdoc": {
				"kind": "dev",
				"methods": {},
				"version": 1
			},
			"evm": {
				"assembly": "    /* \"simple-nft.sol\":59:316  contract NFTCount{... */\n  mstore(0x40, 0x80)\n  callvalue\n  dup1\n  iszero\n  tag_1\n  jumpi\n  0x00\n  dup1\n  revert\ntag_1:\n  pop\n  dataSize(sub_0)\n  dup1\n  dataOffset(sub_0)\n  0x00\n  codecopy\n  0x00\n  return\nstop\n\nsub_0: assembly {\n        /* \"simple-nft.sol\":59:316  contract NFTCount{... */\n      mstore(0x40, 0x80)\n      callvalue\n      dup1\n      iszero\n      tag_1\n      jumpi\n      0x00\n      dup1\n      revert\n    tag_1:\n      pop\n      jumpi(tag_2, lt(calldatasize, 0x04))\n      shr(0xe0, calldataload(0x00))\n      dup1\n      0x383de0c0\n      eq\n      tag_3\n      jumpi\n      dup1\n      0x8acc7b47\n      eq\n      tag_4\n      jumpi\n      dup1\n      0xe02b87bb\n      eq\n      tag_5\n      jumpi\n    tag_2:\n      0x00\n      dup1\n      revert\n        /* \"simple-nft.sol\":106:189  function checkNumOfNFT() public view returns(int8){... */\n    tag_3:\n      tag_6\n      tag_7\n      jump\t// in\n    tag_6:\n      mload(0x40)\n      tag_8\n      swap2\n      swap1\n      tag_9\n      jump\t// in\n    tag_8:\n      mload(0x40)\n      dup1\n      swap2\n      sub\n      swap1\n      return\n        /* \"simple-nft.sol\":195:250  function addNFT() public {... */\n    tag_4:\n      tag_10\n      tag_11\n      jump\t// in\n    tag_10:\n      stop\n        /* \"simple-nft.sol\":256:314  function deleteNFT() public {... */\n    tag_5:\n      tag_12\n      tag_13\n      jump\t// in\n    tag_12:\n      stop\n        /* \"simple-nft.sol\":106:189  function checkNumOfNFT() public view returns(int8){... */\n    tag_7:\n        /* \"simple-nft.sol\":151:155  int8 */\n      0x00\n        /* \"simple-nft.sol\":174:182  numOfNFT */\n      dup1\n      0x00\n      swap1\n      sload\n      swap1\n      0x0100\n      exp\n      swap1\n      div\n      0x00\n      signextend\n        /* \"simple-nft.sol\":166:182  return  numOfNFT */\n      swap1\n      pop\n        /* \"simple-nft.sol\":106:189  function checkNumOfNFT() public view returns(int8){... */\n      swap1\n      jump\t// out\n        /* \"simple-nft.sol\":195:250  function addNFT() public {... */\n    tag_11:\n        /* \"simple-nft.sol\":242:243  1 */\n      0x01\n        /* \"simple-nft.sol\":230:238  numOfNFT */\n      0x00\n      dup1\n        /* \"simple-nft.sol\":230:243  numOfNFT += 1 */\n      dup3\n      dup3\n      dup3\n      swap1\n      sload\n      swap1\n      0x0100\n      exp\n      swap1\n      div\n      0x00\n      signextend\n      tag_16\n      swap2\n      swap1\n      tag_17\n      jump\t// in\n    tag_16:\n      swap3\n      pop\n      0x0100\n      exp\n      dup2\n      sload\n      dup2\n      0xff\n      mul\n      not\n      and\n      swap1\n      dup4\n      0x00\n      signextend\n      0xff\n      and\n      mul\n      or\n      swap1\n      sstore\n      pop\n        /* \"simple-nft.sol\":195:250  function addNFT() public {... */\n      jump\t// out\n        /* \"simple-nft.sol\":256:314  function deleteNFT() public {... */\n    tag_13:\n        /* \"simple-nft.sol\":306:307  1 */\n      0x01\n        /* \"simple-nft.sol\":294:302  numOfNFT */\n      0x00\n      dup1\n        /* \"simple-nft.sol\":294:307  numOfNFT -= 1 */\n      dup3\n      dup3\n      dup3\n      swap1\n      sload\n      swap1\n      0x0100\n      exp\n      swap1\n      div\n      0x00\n      signextend\n      tag_19\n      swap2\n      swap1\n      tag_20\n      jump\t// in\n    tag_19:\n      swap3\n      pop\n      0x0100\n      exp\n      dup2\n      sload\n      dup2\n      0xff\n      mul\n      not\n      and\n      swap1\n      dup4\n      0x00\n      signextend\n      0xff\n      and\n      mul\n      or\n      swap1\n      sstore\n      pop\n        /* \"simple-nft.sol\":256:314  function deleteNFT() public {... */\n      jump\t// out\n        /* \"#utility.yul\":7:96   */\n    tag_21:\n        /* \"#utility.yul\":41:48   */\n      0x00\n        /* \"#utility.yul\":84:89   */\n      dup2\n        /* \"#utility.yul\":81:82   */\n      0x00\n        /* \"#utility.yul\":70:90   */\n      signextend\n        /* \"#utility.yul\":59:90   */\n      swap1\n      pop\n        /* \"#utility.yul\":7:96   */\n      swap2\n      swap1\n      pop\n      jump\t// out\n        /* \"#utility.yul\":102:211   */\n    tag_22:\n        /* \"#utility.yul\":183:204   */\n      tag_27\n        /* \"#utility.yul\":198:203   */\n      dup2\n        /* \"#utility.yul\":183:204   */\n      tag_21\n      jump\t// in\n    tag_27:\n        /* \"#utility.yul\":178:181   */\n      dup3\n        /* \"#utility.yul\":171:205   */\n      mstore\n        /* \"#utility.yul\":102:211   */\n      pop\n      pop\n      jump\t// out\n        /* \"#utility.yul\":217:427   */\n    tag_9:\n        /* \"#utility.yul\":304:308   */\n      0x00\n        /* \"#utility.yul\":342:344   */\n      0x20\n        /* \"#utility.yul\":331:340   */\n      dup3\n        /* \"#utility.yul\":327:345   */\n      add\n        /* \"#utility.yul\":319:345   */\n      swap1\n      pop\n        /* \"#utility.yul\":355:420   */\n      tag_29\n        /* \"#utility.yul\":417:418   */\n      0x00\n        /* \"#utility.yul\":406:415   */\n      dup4\n        /* \"#utility.yul\":402:419   */\n      add\n        /* \"#utility.yul\":393:399   */\n      dup5\n        /* \"#utility.yul\":355:420   */\n      tag_22\n      jump\t// in\n    tag_29:\n        /* \"#utility.yul\":217:427   */\n      swap3\n      swap2\n      pop\n      pop\n      jump\t// out\n        /* \"#utility.yul\":433:613   */\n    tag_23:\n        /* \"#utility.yul\":481:558   */\n      0x4e487b7100000000000000000000000000000000000000000000000000000000\n        /* \"#utility.yul\":478:479   */\n      0x00\n        /* \"#utility.yul\":471:559   */\n      mstore\n        /* \"#utility.yul\":578:582   */\n      0x11\n        /* \"#utility.yul\":575:576   */\n      0x04\n        /* \"#utility.yul\":568:583   */\n      mstore\n        /* \"#utility.yul\":602:606   */\n      0x24\n        /* \"#utility.yul\":599:600   */\n      0x00\n        /* \"#utility.yul\":592:607   */\n      revert\n        /* \"#utility.yul\":619:921   */\n    tag_17:\n        /* \"#utility.yul\":656:659   */\n      0x00\n        /* \"#utility.yul\":675:692   */\n      tag_32\n        /* \"#utility.yul\":690:691   */\n      dup3\n        /* \"#utility.yul\":675:692   */\n      tag_21\n      jump\t// in\n    tag_32:\n        /* \"#utility.yul\":670:692   */\n      swap2\n      pop\n        /* \"#utility.yul\":706:723   */\n      tag_33\n        /* \"#utility.yul\":721:722   */\n      dup4\n        /* \"#utility.yul\":706:723   */\n      tag_21\n      jump\t// in\n    tag_33:\n        /* \"#utility.yul\":701:723   */\n      swap3\n      pop\n        /* \"#utility.yul\":746:747   */\n      dup3\n        /* \"#utility.yul\":743:744   */\n      dup3\n        /* \"#utility.yul\":739:748   */\n      add\n        /* \"#utility.yul\":732:748   */\n      swap1\n      pop\n        /* \"#utility.yul\":814:880   */\n      0xffffffffffffffffffffffffffffffffffffffffffffffffffffffffffffff80\n        /* \"#utility.yul\":809:812   */\n      dup2\n        /* \"#utility.yul\":805:881   */\n      slt\n        /* \"#utility.yul\":786:790   */\n      0x7f\n        /* \"#utility.yul\":781:784   */\n      dup3\n        /* \"#utility.yul\":777:791   */\n      sgt\n        /* \"#utility.yul\":761:891   */\n      or\n        /* \"#utility.yul\":758:914   */\n      iszero\n      tag_34\n      jumpi\n        /* \"#utility.yul\":894:912   */\n      tag_35\n      tag_23\n      jump\t// in\n    tag_35:\n        /* \"#utility.yul\":758:914   */\n    tag_34:\n        /* \"#utility.yul\":619:921   */\n      swap3\n      swap2\n      pop\n      pop\n      jump\t// out\n        /* \"#utility.yul\":927:1233   */\n    tag_20:\n        /* \"#utility.yul\":964:968   */\n      0x00\n        /* \"#utility.yul\":984:1001   */\n      tag_37\n        /* \"#utility.yul\":999:1000   */\n      dup3\n        /* \"#utility.yul\":984:1001   */\n      tag_21\n      jump\t// in\n    tag_37:\n        /* \"#utility.yul\":979:1001   */\n      swap2\n      pop\n        /* \"#utility.yul\":1015:1032   */\n      tag_38\n        /* \"#utility.yul\":1030:1031   */\n      dup4\n        /* \"#utility.yul\":1015:1032   */\n      tag_21\n      jump\t// in\n    tag_38:\n        /* \"#utility.yul\":1010:1032   */\n      swap3\n      pop\n        /* \"#utility.yul\":1056:1057   */\n      dup3\n        /* \"#utility.yul\":1053:1054   */\n      dup3\n        /* \"#utility.yul\":1049:1058   */\n      sub\n        /* \"#utility.yul\":1041:1058   */\n      swap1\n      pop\n        /* \"#utility.yul\":1188:1192   */\n      0x7f\n        /* \"#utility.yul\":1182:1186   */\n      dup2\n        /* \"#utility.yul\":1178:1193   */\n      sgt\n        /* \"#utility.yul\":1097:1163   */\n      0xffffffffffffffffffffffffffffffffffffffffffffffffffffffffffffff80\n        /* \"#utility.yul\":1091:1095   */\n      dup3\n        /* \"#utility.yul\":1087:1164   */\n      slt\n        /* \"#utility.yul\":1071:1203   */\n      or\n        /* \"#utility.yul\":1068:1226   */\n      iszero\n      tag_39\n      jumpi\n        /* \"#utility.yul\":1206:1224   */\n      tag_40\n      tag_23\n      jump\t// in\n    tag_40:\n        /* \"#utility.yul\":1068:1226   */\n    tag_39:\n        /* \"#utility.yul\":927:1233   */\n      swap3\n      swap2\n      pop\n      pop\n      jump\t// out\n\n    auxdata: 0xa2646970667358221220a53310312740bb5abc258ee4f93983b509577dc86c1abcbfb48d41e8113d26bf64736f6c634300081a0033\n}\n",
				"bytecode": {
					"linkReferences": {},
					"object": "6080604052348015600e575f80fd5b5061023e8061001c5f395ff3fe608060405234801561000f575f80fd5b506004361061003f575f3560e01c8063383de0c0146100435780638acc7b4714610061578063e02b87bb1461006b575b5f80fd5b61004b610075565b6040516100589190610112565b60405180910390f35b610069610088565b005b6100736100c0565b005b5f805f9054906101000a90045f0b905090565b60015f808282829054906101000a90045f0b6100a49190610158565b92506101000a81548160ff02191690835f0b60ff160217905550565b60015f808282829054906101000a90045f0b6100dc91906101b0565b92506101000a81548160ff02191690835f0b60ff160217905550565b5f815f0b9050919050565b61010c816100f8565b82525050565b5f6020820190506101255f830184610103565b92915050565b7f4e487b71000000000000000000000000000000000000000000000000000000005f52601160045260245ffd5b5f610162826100f8565b915061016d836100f8565b925082820190507fffffffffffffffffffffffffffffffffffffffffffffffffffffffffffffff808112607f821317156101aa576101a961012b565b5b92915050565b5f6101ba826100f8565b91506101c5836100f8565b92508282039050607f81137fffffffffffffffffffffffffffffffffffffffffffffffffffffffffffffff80821217156102025761020161012b565b5b9291505056fea2646970667358221220a53310312740bb5abc258ee4f93983b509577dc86c1abcbfb48d41e8113d26bf64736f6c634300081a0033",
					"opcodes": "PUSH1 0x80 PUSH1 0x40 MSTORE CALLVALUE DUP1 ISZERO PUSH1 0xE JUMPI PUSH0 DUP1 REVERT JUMPDEST POP PUSH2 0x23E DUP1 PUSH2 0x1C PUSH0 CODECOPY PUSH0 RETURN INVALID PUSH1 0x80 PUSH1 0x40 MSTORE CALLVALUE DUP1 ISZERO PUSH2 0xF JUMPI PUSH0 DUP1 REVERT JUMPDEST POP PUSH1 0x4 CALLDATASIZE LT PUSH2 0x3F JUMPI PUSH0 CALLDATALOAD PUSH1 0xE0 SHR DUP1 PUSH4 0x383DE0C0 EQ PUSH2 0x43 JUMPI DUP1 PUSH4 0x8ACC7B47 EQ PUSH2 0x61 JUMPI DUP1 PUSH4 0xE02B87BB EQ PUSH2 0x6B JUMPI JUMPDEST PUSH0 DUP1 REVERT JUMPDEST PUSH2 0x4B PUSH2 0x75 JUMP JUMPDEST PUSH1 0x40 MLOAD PUSH2 0x58 SWAP2 SWAP1 PUSH2 0x112 JUMP JUMPDEST PUSH1 0x40 MLOAD DUP1 SWAP2 SUB SWAP1 RETURN JUMPDEST PUSH2 0x69 PUSH2 0x88 JUMP JUMPDEST STOP JUMPDEST PUSH2 0x73 PUSH2 0xC0 JUMP JUMPDEST STOP JUMPDEST PUSH0 DUP1 PUSH0 SWAP1 SLOAD SWAP1 PUSH2 0x100 EXP SWAP1 DIV PUSH0 SIGNEXTEND SWAP1 POP SWAP1 JUMP JUMPDEST PUSH1 0x1 PUSH0 DUP1 DUP3 DUP3 DUP3 SWAP1 SLOAD SWAP1 PUSH2 0x100 EXP SWAP1 DIV PUSH0 SIGNEXTEND PUSH2 0xA4 SWAP2 SWAP1 PUSH2 0x158 JUMP JUMPDEST SWAP3 POP PUSH2 0x100 EXP DUP2 SLOAD DUP2 PUSH1 0xFF MUL NOT AND SWAP1 DUP4 PUSH0 SIGNEXTEND PUSH1 0xFF AND MUL OR SWAP1 SSTORE POP JUMP JUMPDEST PUSH1 0x1 PUSH0 DUP1 DUP3 DUP3 DUP3 SWAP1 SLOAD SWAP1 PUSH2 0x100 EXP SWAP1 DIV PUSH0 SIGNEXTEND PUSH2 0xDC SWAP2 SWAP1 PUSH2 0x1B0 JUMP JUMPDEST SWAP3 POP PUSH2 0x100 EXP DUP2 SLOAD DUP2 PUSH1 0xFF MUL NOT AND SWAP1 DUP4 PUSH0 SIGNEXTEND PUSH1 0xFF AND MUL OR SWAP1 SSTORE POP JUMP JUMPDEST PUSH0 DUP2 PUSH0 SIGNEXTEND SWAP1 POP SWAP2 SWAP1 POP JUMP JUMPDEST PUSH2 0x10C DUP2 PUSH2 0xF8 JUMP JUMPDEST DUP3 MSTORE POP POP JUMP JUMPDEST PUSH0 PUSH1 0x20 DUP3 ADD SWAP1 POP PUSH2 0x125 PUSH0 DUP4 ADD DUP5 PUSH2 0x103 JUMP JUMPDEST SWAP3 SWAP2 POP POP JUMP JUMPDEST PUSH32 0x4E487B7100000000000000000000000000000000000000000000000000000000 PUSH0 MSTORE PUSH1 0x11 PUSH1 0x4 MSTORE PUSH1 0x24 PUSH0 REVERT JUMPDEST PUSH0 PUSH2 0x162 DUP3 PUSH2 0xF8 JUMP JUMPDEST SWAP2 POP PUSH2 0x16D DUP4 PUSH2 0xF8 JUMP JUMPDEST SWAP3 POP DUP3 DUP3 ADD SWAP1 POP PUSH32 0xFFFFFFFFFFFFFFFFFFFFFFFFFFFFFFFFFFFFFFFFFFFFFFFFFFFFFFFFFFFFFF80 DUP2 SLT PUSH1 0x7F DUP3 SGT OR ISZERO PUSH2 0x1AA JUMPI PUSH2 0x1A9 PUSH2 0x12B JUMP JUMPDEST JUMPDEST SWAP3 SWAP2 POP POP JUMP JUMPDEST PUSH0 PUSH2 0x1BA DUP3 PUSH2 0xF8 JUMP JUMPDEST SWAP2 POP PUSH2 0x1C5 DUP4 PUSH2 0xF8 JUMP JUMPDEST SWAP3 POP DUP3 DUP3 SUB SWAP1 POP PUSH1 0x7F DUP2 SGT PUSH32 0xFFFFFFFFFFFFFFFFFFFFFFFFFFFFFFFFFFFFFFFFFFFFFFFFFFFFFFFFFFFFFF80 DUP3 SLT OR ISZERO PUSH2 0x202 JUMPI PUSH2 0x201 PUSH2 0x12B JUMP JUMPDEST JUMPDEST SWAP3 SWAP2 POP POP JUMP INVALID LOG2 PUSH5 0x6970667358 0x22 SLT KECCAK256 0xA5 CALLER LT BALANCE 0x27 BLOCKHASH 0xBB GAS 0xBC 0x25 DUP15 0xE4 0xF9 CODECOPY DUP4 0xB5 MULMOD JUMPI PUSH30 0xC86C1ABCBFB48D41E8113D26BF64736F6C634300081A0033000000000000 "
				},
				"gasEstimates": {
					"creation": {
						"codeDepositCost": "114800",
						"executionCost": "157",
						"totalCost": "114957"
					},
					"external": {
						"addNFT()": "infinite",
						"checkNumOfNFT()": "2453",
						"deleteNFT()": "infinite"
					}
				},
				"methodIdentifiers": {
					"addNFT()": "8acc7b47",
					"checkNumOfNFT()": "383de0c0",
					"deleteNFT()": "e02b87bb"
				}
			},
			"storageLayout": {
				"storage": [
					{
						"astId": 3,
						"contract": "simple-nft.sol:NFTCount",
						"label": "numOfNFT",
						"offset": 0,
						"slot": "0",
						"type": "t_int8"
					}
				],
				"types": {
					"t_int8": {
						"encoding": "inplace",
						"label": "int8",
						"numberOfBytes": "1"
					}
				}
			},
			"userdoc": {
				"kind": "user",
				"methods": {},
				"version": 1
			}
		}
	}
}